{
  "contractName": "LotteryCreator",
  "abi": [
    {
      "anonymous": false,
      "inputs": [
        {
          "indexed": false,
          "internalType": "string",
          "name": "name",
          "type": "string"
        }
      ],
      "name": "LotteryCreated",
      "type": "event"
    },
    {
      "inputs": [],
      "name": "getLotteriesQuantity",
      "outputs": [
        {
          "internalType": "uint256",
          "name": "",
          "type": "uint256"
        }
      ],
      "stateMutability": "view",
      "type": "function"
    },
    {
      "inputs": [
        {
          "internalType": "string",
          "name": "name",
          "type": "string"
        }
      ],
      "name": "createLottery",
      "outputs": [],
      "stateMutability": "nonpayable",
      "type": "function"
    },
    {
      "inputs": [
        {
          "internalType": "string",
          "name": "name",
          "type": "string"
        }
      ],
      "name": "getLottery",
      "outputs": [
        {
          "components": [
            {
              "internalType": "string",
              "name": "name",
              "type": "string"
            },
            {
              "internalType": "uint256",
              "name": "timestamp",
              "type": "uint256"
            },
            {
              "internalType": "address",
              "name": "owner",
              "type": "address"
            },
            {
              "internalType": "contract ILottery",
              "name": "lottery",
              "type": "address"
            }
          ],
          "internalType": "struct LotteryCreator.LotteryData",
          "name": "",
          "type": "tuple"
        }
      ],
      "stateMutability": "view",
      "type": "function"
    }
  ],
  "bytecode": "0x6080604052600060015534801561001557600080fd5b506119fc806100256000396000f3fe608060405234801561001057600080fd5b50600436106100415760003560e01c8063168425821461004657806387ae7f6714610062578063a8bd110014610080575b600080fd5b610060600480360381019061005b9190610550565b6100b0565b005b61006a610264565b6040516100779190610758565b60405180910390f35b61009a60048036038101906100959190610550565b61026e565b6040516100a79190610736565b60405180910390f35b6000336040516100bf906103fe565b6100c991906106f9565b604051809103906000f0801580156100e5573d6000803e3d6000fd5b5090506100f061040b565b60405180608001604052808481526020014281526020013373ffffffffffffffffffffffffffffffffffffffff1681526020018373ffffffffffffffffffffffffffffffffffffffff1681525090508060008460405161015091906106e2565b9081526020016040518091039020600082015181600001908051906020019061017a92919061045f565b506020820151816001015560408201518160020160006101000a81548173ffffffffffffffffffffffffffffffffffffffff021916908373ffffffffffffffffffffffffffffffffffffffff16021790555060608201518160030160006101000a81548173ffffffffffffffffffffffffffffffffffffffff021916908373ffffffffffffffffffffffffffffffffffffffff1602179055509050506001600081548092919060010191905055507fee2010e55c7030974fb99ac3fd7f38ba6f5eabdc607a8fd8eaea1ef329df96dc836040516102579190610714565b60405180910390a1505050565b6000600154905090565b61027661040b565b60008260405161028691906106e2565b9081526020016040518091039020604051806080016040529081600082018054600181600116156101000203166002900480601f0160208091040260200160405190810160405280929190818152602001828054600181600116156101000203166002900480156103385780601f1061030d57610100808354040283529160200191610338565b820191906000526020600020905b81548152906001019060200180831161031b57829003601f168201915b50505050508152602001600182015481526020016002820160009054906101000a900473ffffffffffffffffffffffffffffffffffffffff1673ffffffffffffffffffffffffffffffffffffffff1673ffffffffffffffffffffffffffffffffffffffff1681526020016003820160009054906101000a900473ffffffffffffffffffffffffffffffffffffffff1673ffffffffffffffffffffffffffffffffffffffff1673ffffffffffffffffffffffffffffffffffffffff16815250509050919050565b6110d9806108ee83390190565b60405180608001604052806060815260200160008152602001600073ffffffffffffffffffffffffffffffffffffffff168152602001600073ffffffffffffffffffffffffffffffffffffffff1681525090565b828054600181600116156101000203166002900490600052602060002090601f016020900481019282601f106104a057805160ff19168380011785556104ce565b828001600101855582156104ce579182015b828111156104cd5782518255916020019190600101906104b2565b5b5090506104db91906104df565b5090565b5b808211156104f85760008160009055506001016104e0565b5090565b600082601f83011261050d57600080fd5b813561052061051b826107a0565b610773565b9150808252602083016020830185838301111561053c57600080fd5b61054783828461089a565b50505092915050565b60006020828403121561056257600080fd5b600082013567ffffffffffffffff81111561057c57600080fd5b610588848285016104fc565b91505092915050565b61059a81610840565b82525050565b6105a981610804565b82525050565b6105b881610852565b82525050565b60006105c9826107cc565b6105d381856107d7565b93506105e38185602086016108a9565b6105ec816108dc565b840191505092915050565b6000610602826107cc565b61060c81856107e8565b935061061c8185602086016108a9565b610625816108dc565b840191505092915050565b600061063b826107cc565b61064581856107f9565b93506106558185602086016108a9565b80840191505092915050565b6000608083016000830151848203600086015261067e82826105be565b915050602083015161069360208601826106c4565b5060408301516106a660408601826105a0565b5060608301516106b960608601826105af565b508091505092915050565b6106cd81610836565b82525050565b6106dc81610836565b82525050565b60006106ee8284610630565b915081905092915050565b600060208201905061070e6000830184610591565b92915050565b6000602082019050818103600083015261072e81846105f7565b905092915050565b600060208201905081810360008301526107508184610661565b905092915050565b600060208201905061076d60008301846106d3565b92915050565b6000604051905081810181811067ffffffffffffffff8211171561079657600080fd5b8060405250919050565b600067ffffffffffffffff8211156107b757600080fd5b601f19601f8301169050602081019050919050565b600081519050919050565b600082825260208201905092915050565b600082825260208201905092915050565b600081905092915050565b600061080f82610816565b9050919050565b600073ffffffffffffffffffffffffffffffffffffffff82169050919050565b6000819050919050565b600061084b82610876565b9050919050565b600061085d82610864565b9050919050565b600061086f82610816565b9050919050565b600061088182610888565b9050919050565b600061089382610816565b9050919050565b82818337600083830152505050565b60005b838110156108c75780820151818401526020810190506108ac565b838111156108d6576000848401525b50505050565b6000601f19601f830116905091905056fe608060405234801561001057600080fd5b506040516110d93803806110d98339818101604052602081101561003357600080fd5b8101908080519060200190929190505050806001806101000a81548173ffffffffffffffffffffffffffffffffffffffff021916908373ffffffffffffffffffffffffffffffffffffffff1602179055506000600160006101000a81548160ff021916908360028111156100a357fe5b021790555050611021806100b86000396000f3fe60806040526004361061008a5760003560e01c80635d495aea116100595780635d495aea1461024e5780637daa10ce14610265578063b260c42a14610319578063dfbf53ae14610354578063fa30b25114610408576100cf565b8063065574c2146100d45780633a31a76b146100ff5780634e69d5601461012a5780635932840114610160576100cf565b366100cf576100cd6040518060400160405280600981526020017f616e6f6e796d6f75730000000000000000000000000000000000000000000000815250610481565b005b600080fd5b3480156100e057600080fd5b506100e961071e565b6040518082815260200191505060405180910390f35b34801561010b57600080fd5b50610114610728565b6040518082815260200191505060405180910390f35b34801561013657600080fd5b5061013f610731565b6040518082600281111561014f57fe5b815260200191505060405180910390f35b34801561016c57600080fd5b506101af6004803603602081101561018357600080fd5b81019080803573ffffffffffffffffffffffffffffffffffffffff169060200190929190505050610748565b60405180806020018473ffffffffffffffffffffffffffffffffffffffff168152602001838152602001828103825285818151815260200191508051906020019080838360005b838110156102115780820151818401526020810190506101f6565b50505050905090810190601f16801561023e5780820380516001836020036101000a031916815260200191505b5094505050505060405180910390f35b34801561025a57600080fd5b50610263610868565b005b34801561027157600080fd5b5061027a610afe565b60405180806020018473ffffffffffffffffffffffffffffffffffffffff168152602001838152602001828103825285818151815260200191508051906020019080838360005b838110156102dc5780820151818401526020810190506102c1565b50505050905090810190601f1680156103095780820380516001836020036101000a031916815260200191505b5094505050505060405180910390f35b34801561032557600080fd5b506103526004803603602081101561033c57600080fd5b8101908080359060200190929190505050610c1c565b005b34801561036057600080fd5b50610369610ced565b60405180806020018473ffffffffffffffffffffffffffffffffffffffff168152602001838152602001828103825285818151815260200191508051906020019080838360005b838110156103cb5780820151818401526020810190506103b0565b50505050905090810190601f1680156103f85780820380516001836020036101000a031916815260200191505b5094505050505060405180910390f35b61047f6004803603602081101561041e57600080fd5b810190808035906020019064010000000081111561043b57600080fd5b82018360208201111561044d57600080fd5b8035906020019184600183028401116401000000008311171561046f57600080fd5b9091929391929390505050610dbd565b005b600073ffffffffffffffffffffffffffffffffffffffff16600360003373ffffffffffffffffffffffffffffffffffffffff1673ffffffffffffffffffffffffffffffffffffffff16815260200190815260200160002060010160009054906101000a900473ffffffffffffffffffffffffffffffffffffffff1673ffffffffffffffffffffffffffffffffffffffff1614610585576040517f08c379a000000000000000000000000000000000000000000000000000000000815260040180806020018281038252601d8152602001807f54686520706c6179657220697320616c726561647920706c6179696e6700000081525060200191505060405180910390fd5b6000339050610592610e68565b60405180606001604052808481526020018373ffffffffffffffffffffffffffffffffffffffff168152602001600254815250905060026000815480929190600101919050555080600360008473ffffffffffffffffffffffffffffffffffffffff1673ffffffffffffffffffffffffffffffffffffffff1681526020019081526020016000206000820151816000019080519060200190610635929190610e9f565b5060208201518160010160006101000a81548173ffffffffffffffffffffffffffffffffffffffff021916908373ffffffffffffffffffffffffffffffffffffffff160217905550604082015181600201559050506004829080600181540180825580915050600190039060005260206000200160009091909190916101000a81548173ffffffffffffffffffffffffffffffffffffffff021916908373ffffffffffffffffffffffffffffffffffffffff1602179055507fbc6f152748126261832ed7e13c577054c3e9e8fde492258f797cfeb82361f61860405160405180910390a1505050565b6000600254905090565b60008054905090565b6000600160009054906101000a900460ff16905090565b60606000806000600360008673ffffffffffffffffffffffffffffffffffffffff1673ffffffffffffffffffffffffffffffffffffffff1681526020019081526020016000209050806000018160010160009054906101000a900473ffffffffffffffffffffffffffffffffffffffff168260020154828054600181600116156101000203166002900480601f0160208091040260200160405190810160405280929190818152602001828054600181600116156101000203166002900480156108535780601f1061082857610100808354040283529160200191610853565b820191906000526020600020905b81548152906001019060200180831161083657829003601f168201915b50505050509250935093509350509193909250565b60018054906101000a900473ffffffffffffffffffffffffffffffffffffffff1673ffffffffffffffffffffffffffffffffffffffff163373ffffffffffffffffffffffffffffffffffffffff161461090c576040517f08c379a0000000000000000000000000000000000000000000000000000000008152600401808060200182810382526028815260200180610fc46028913960400191505060405180910390fd5b6000610916610e0e565b9050600060048080549050838161092957fe5b068154811061093457fe5b9060005260206000200160009054906101000a900473ffffffffffffffffffffffffffffffffffffffff169050600360008273ffffffffffffffffffffffffffffffffffffffff1673ffffffffffffffffffffffffffffffffffffffff1681526020019081526020016000206005600082018160000190805460018160011615610100020316600290046109c9929190610f1f565b506001820160009054906101000a900473ffffffffffffffffffffffffffffffffffffffff168160010160006101000a81548173ffffffffffffffffffffffffffffffffffffffff021916908373ffffffffffffffffffffffffffffffffffffffff16021790555060028201548160020155905050600560010160009054906101000a900473ffffffffffffffffffffffffffffffffffffffff1673ffffffffffffffffffffffffffffffffffffffff166108fc479081150290604051600060405180830381858888f19350505050158015610aa9573d6000803e3d6000fd5b506002600160006101000a81548160ff02191690836002811115610ac957fe5b02179055507f4d8ab030ed27a427a7a4ab24325fb2f346da225bb81d36bc0adeee5a7ff301eb60405160405180910390a15050565b60606000806000600360003373ffffffffffffffffffffffffffffffffffffffff1673ffffffffffffffffffffffffffffffffffffffff1681526020019081526020016000209050806000018160010160009054906101000a900473ffffffffffffffffffffffffffffffffffffffff168260020154828054600181600116156101000203166002900480601f016020809104026020016040519081016040528092919081815260200182805460018160011615610100020316600290048015610c095780601f10610bde57610100808354040283529160200191610c09565b820191906000526020600020905b815481529060010190602001808311610bec57829003601f168201915b5050505050925093509350935050909192565b60018054906101000a900473ffffffffffffffffffffffffffffffffffffffff1673ffffffffffffffffffffffffffffffffffffffff163373ffffffffffffffffffffffffffffffffffffffff1614610cc0576040517f08c379a0000000000000000000000000000000000000000000000000000000008152600401808060200182810382526028815260200180610fc46028913960400191505060405180910390fd5b8060008190555060018060006101000a81548160ff02191690836002811115610ce557fe5b021790555050565b6005806000018054600181600116156101000203166002900480601f016020809104026020016040519081016040528092919081815260200182805460018160011615610100020316600290048015610d875780601f10610d5c57610100808354040283529160200191610d87565b820191906000526020600020905b815481529060010190602001808311610d6a57829003601f168201915b5050505050908060010160009054906101000a900473ffffffffffffffffffffffffffffffffffffffff16908060020154905083565b610e0a82828080601f016020809104026020016040519081016040528093929190818152602001838380828437600081840152601f19601f82011690508083019250505050505050610481565b5050565b6000424433604051602001808481526020018381526020018273ffffffffffffffffffffffffffffffffffffffff1660601b815260140193505050506040516020818303038152906040528051906020012060001c905090565b604051806060016040528060608152602001600073ffffffffffffffffffffffffffffffffffffffff168152602001600081525090565b828054600181600116156101000203166002900490600052602060002090601f016020900481019282601f10610ee057805160ff1916838001178555610f0e565b82800160010185558215610f0e579182015b82811115610f0d578251825591602001919060010190610ef2565b5b509050610f1b9190610fa6565b5090565b828054600181600116156101000203166002900490600052602060002090601f016020900481019282601f10610f585780548555610f95565b82800160010185558215610f9557600052602060002091601f016020900482015b82811115610f94578254825591600101919060010190610f79565b5b509050610fa29190610fa6565b5090565b5b80821115610fbf576000816000905550600101610fa7565b509056fe4f6e6c7920746865206f776e65722063616e2061637469766174652074686520636f6e7472616374a26469706673582212200eaaa04e4d48e16edf1c6149d90f7cda6e4cc4f74add32d3f27b912d6e92522e64736f6c63430007000033a2646970667358221220891775d68e072f63bd61470195e8ba6b0b2565e790661b42183b7a00da024dc764736f6c63430007000033",
  "immutableReferences": {},
  "source": "// SPDX-License-Identifier: MIT\r\npragma solidity ^0.7.0;\r\npragma experimental ABIEncoderV2;\r\n\r\nimport { Lottery } from './Lottery.sol';\r\nimport { ILottery } from './ILottery.sol';\r\n\r\n/// @title A creator of lotteries\r\n/// @author Emiliano Oke Ocariz\r\n/// @notice \r\n/// @dev \r\ncontract LotteryCreator {\r\n    \r\n    struct LotteryData {\r\n        string name; // clave\r\n        uint timestamp;\r\n        address owner;\r\n        ILottery lottery;\r\n    }\r\n\r\n    mapping(string => LotteryData) _lotteriesData;\r\n\r\n    uint _lotteriesQuantity = 0;\r\n\r\n    event LotteryCreated(string name);\r\n\r\n    function getLotteriesQuantity() public view returns (uint) {\r\n        return _lotteriesQuantity;\r\n    }\r\n\r\n    function createLottery(string memory name) public {\r\n        ILottery lottery = new Lottery(msg.sender);\r\n        LotteryData memory data = LotteryData(name, block.timestamp, msg.sender, lottery);\r\n        _lotteriesData[name] = data;\r\n\r\n        _lotteriesQuantity++;\r\n\r\n        emit LotteryCreated(name);\r\n    }\r\n\r\n    function getLottery(string memory name) public view returns (LotteryData memory) {\r\n        return _lotteriesData[name];\r\n    }\r\n\r\n    function addLotteryToList(string memory name, ILottery newLottery) internal {\r\n        LotteryData memory data = LotteryData(name, block.timestamp, msg.sender, newLottery);\r\n        _lotteriesData[name] = data;\r\n\r\n        _lotteriesQuantity++;\r\n\r\n        emit LotteryCreated(name);\r\n    }      \r\n\r\n}",
  "sourcePath": "C:/LotterySolidity/contracts/LotteryCreator.sol",
  "compiler": {
    "name": "solc",
    "version": "0.7.0+commit.9e61f92b.Emscripten.clang"
  },
  "schemaVersion": "3.4.0",
  "updatedAt": "2021-05-06T00:27:33.581Z",
  "devdoc": {
    "author": "Emiliano Oke Ocariz",
    "kind": "dev",
    "methods": {},
    "title": "A creator of lotteries",
    "version": 1
  },
  "userdoc": {
    "kind": "user",
    "methods": {},
    "version": 1
  }
}